{
  "_format": "hh-sol-artifact-1",
  "contractName": "CampaignFactory",
  "sourceName": "contracts/CampaignFactory.sol",
  "abi": [
    {
      "anonymous": false,
      "inputs": [
        {
          "indexed": false,
          "internalType": "address",
          "name": "campaignAddress",
          "type": "address"
        },
        {
          "indexed": false,
          "internalType": "address",
          "name": "creator",
          "type": "address"
        },
        {
          "indexed": false,
          "internalType": "string",
          "name": "title",
          "type": "string"
        }
      ],
      "name": "CampaignCreated",
      "type": "event"
    },
    {
      "inputs": [
        {
          "internalType": "string",
          "name": "_title",
          "type": "string"
        },
        {
          "internalType": "string",
          "name": "_description",
          "type": "string"
        },
        {
          "internalType": "uint256",
          "name": "_targetAmount",
          "type": "uint256"
        },
        {
          "internalType": "uint256",
          "name": "_durationInDays",
          "type": "uint256"
        }
      ],
      "name": "createCampaign",
      "outputs": [],
      "stateMutability": "nonpayable",
      "type": "function"
    },
    {
      "inputs": [
        {
          "internalType": "uint256",
          "name": "",
          "type": "uint256"
        }
      ],
      "name": "deployedCampaigns",
      "outputs": [
        {
          "internalType": "address",
          "name": "",
          "type": "address"
        }
      ],
      "stateMutability": "view",
      "type": "function"
    },
    {
      "inputs": [],
      "name": "getCampaignsCount",
      "outputs": [
        {
          "internalType": "uint256",
          "name": "",
          "type": "uint256"
        }
      ],
      "stateMutability": "view",
      "type": "function"
    },
    {
      "inputs": [],
      "name": "getDeployedCampaigns",
      "outputs": [
        {
          "internalType": "address[]",
          "name": "",
          "type": "address[]"
        }
      ],
      "stateMutability": "view",
      "type": "function"
    }
  ],
  "bytecode": "0x608060405234801561001057600080fd5b50611502806100206000396000f3fe608060405234801561001057600080fd5b506004361061004c5760003560e01c8063339d50a5146100515780634acb9d4f146100815780637e6253da14610096578063a318f269146100a7575b600080fd5b61006461005f36600461021f565b6100bc565b6040516001600160a01b0390911681526020015b60405180910390f35b6100896100e6565b6040516100789190610238565b600054604051908152602001610078565b6100ba6100b5366004610328565b610148565b005b600081815481106100cc57600080fd5b6000918252602090912001546001600160a01b0316905081565b6060600080548060200260200160405190810160405280929190818152602001828054801561013e57602002820191906000526020600020905b81546001600160a01b03168152600190910190602001808311610120575b5050505050905090565b60008484848460405161015a90610212565b61016794939291906103e2565b604051809103906000f080158015610183573d6000803e3d6000fd5b50600080546001810182559080527f290decd9548b62a8d60345a988386fc84ba6bc95484008f6362f93160ef3e5630180546001600160a01b0319166001600160a01b0383161790556040519091507f37bb6c1f723b45d67f1e74f38d0317e27d160a58f9efcf0dfd9b9d42c78eef5c906102039083903390899061041b565b60405180910390a15050505050565b61107c8061045183390190565b60006020828403121561023157600080fd5b5035919050565b6020808252825182820181905260009190848201906040850190845b818110156102795783516001600160a01b031683529284019291840191600101610254565b50909695505050505050565b634e487b7160e01b600052604160045260246000fd5b600082601f8301126102ac57600080fd5b813567ffffffffffffffff808211156102c7576102c7610285565b604051601f8301601f19908116603f011681019082821181831017156102ef576102ef610285565b8160405283815286602085880101111561030857600080fd5b836020870160208301376000602085830101528094505050505092915050565b6000806000806080858703121561033e57600080fd5b843567ffffffffffffffff8082111561035657600080fd5b6103628883890161029b565b9550602087013591508082111561037857600080fd5b506103858782880161029b565b949794965050505060408301359260600135919050565b6000815180845260005b818110156103c2576020818501810151868301820152016103a6565b506000602082860101526020601f19601f83011685010191505092915050565b6080815260006103f5608083018761039c565b8281036020840152610407818761039c565b604084019590955250506060015292915050565b6001600160a01b038481168252831660208201526060604082018190526000906104479083018461039c565b9594505050505056fe60806040523480156200001157600080fd5b506040516200107c3803806200107c8339810160408190526200003491620001fd565b604051806101000160405280336001600160a01b031681526020018581526020018481526020018381526020016000815260200182620151806200007991906200028d565b620000859042620002ad565b81526001602080830182905260006040909301839052835183546001600160a01b0319166001600160a01b03909116178355830151620000c6908262000352565b5060408201516002820190620000dd908262000352565b50606082015160038201556080820151600482015560a0820151600582015560c08201516006909101805460e09093015115156101000261ff00199215159290921661ffff1990931692909217179055506200041e92505050565b634e487b7160e01b600052604160045260246000fd5b600082601f8301126200016057600080fd5b81516001600160401b03808211156200017d576200017d62000138565b604051601f8301601f19908116603f01168101908282118183101715620001a857620001a862000138565b81604052838152602092508683858801011115620001c557600080fd5b600091505b83821015620001e95785820183015181830184015290820190620001ca565b600093810190920192909252949350505050565b600080600080608085870312156200021457600080fd5b84516001600160401b03808211156200022c57600080fd5b6200023a888389016200014e565b955060208701519150808211156200025157600080fd5b5062000260878288016200014e565b604087015160609097015195989097509350505050565b634e487b7160e01b600052601160045260246000fd5b8082028115828204841417620002a757620002a762000277565b92915050565b80820180821115620002a757620002a762000277565b600181811c90821680620002d857607f821691505b602082108103620002f957634e487b7160e01b600052602260045260246000fd5b50919050565b601f8211156200034d57600081815260208120601f850160051c81016020861015620003285750805b601f850160051c820191505b81811015620003495782815560010162000334565b5050505b505050565b81516001600160401b038111156200036e576200036e62000138565b62000386816200037f8454620002c3565b84620002ff565b602080601f831160018114620003be5760008415620003a55750858301515b600019600386901b1c1916600185901b17855562000349565b600085815260208120601f198616915b82811015620003ef57888601518255948401946001909101908401620003ce565b50858210156200040e5787850151600019600388901b60f8161c191681555b5050505050600190811b01905550565b610c4e806200042e6000396000f3fe60806040526004361061007b5760003560e01c8063811e539c1161004e578063811e539c14610124578063af157c191461014d578063d6290cd71461016f578063d7bb99ba1461019157600080fd5b806324600fc3146100805780633cb5d1001461009757806342e94c90146100d4578063590e1ae31461010f575b600080fd5b34801561008c57600080fd5b50610095610199565b005b3480156100a357600080fd5b506100b76100b23660046109d7565b61032f565b6040516001600160a01b0390911681526020015b60405180910390f35b3480156100e057600080fd5b506101016100ef3660046109f0565b60076020526000908152604090205481565b6040519081526020016100cb565b34801561011b57600080fd5b50610095610359565b34801561013057600080fd5b50610139610456565b6040516100cb989796959493929190610a66565b34801561015957600080fd5b506101626105aa565b6040516100cb9190610acf565b34801561017b57600080fd5b5061018461060c565b6040516100cb9190610b1c565b6100956107e6565b6000546001600160a01b031633146101f85760405162461bcd60e51b815260206004820152601a60248201527f4f6e6c792063726561746f722063616e2063616c6c207468697300000000000060448201526064015b60405180910390fd5b600654610100900460ff168061020f575060055442115b6102515760405162461bcd60e51b815260206004820152601360248201527210d85b9b9bdd081dda5d1a191c985dc81e595d606a1b60448201526064016101ef565b6004546102975760405162461bcd60e51b81526020600482015260146024820152734e6f2066756e647320746f20776974686472617760601b60448201526064016101ef565b600480546000918290556006805460ff19169055815460405191926001600160a01b039091169183156108fc0291849190818181858888f193505050501580156102e5573d6000803e3d6000fd5b50600054604080516001600160a01b039092168252602082018390527feaff4b37086828766ad3268786972c0cd24259d4c87a80f9d3963a3c3d999b0d910160405180910390a150565b6008818154811061033f57600080fd5b6000918252602090912001546001600160a01b0316905081565b600554421180156103725750600654610100900460ff16155b6103b55760405162461bcd60e51b8152602060048201526014602482015273526566756e64206e6f7420617661696c61626c6560601b60448201526064016101ef565b336000908152600760205260409020546104115760405162461bcd60e51b815260206004820152601960248201527f4e6f20636f6e747269627574696f6e20746f20726566756e640000000000000060448201526064016101ef565b33600081815260076020526040808220805490839055905190929183156108fc02918491818181858888f19350505050158015610452573d6000803e3d6000fd5b5050565b60008054600180546001600160a01b03909216929161047490610bb7565b80601f01602080910402602001604051908101604052809291908181526020018280546104a090610bb7565b80156104ed5780601f106104c2576101008083540402835291602001916104ed565b820191906000526020600020905b8154815290600101906020018083116104d057829003601f168201915b50505050509080600201805461050290610bb7565b80601f016020809104026020016040519081016040528092919081815260200182805461052e90610bb7565b801561057b5780601f106105505761010080835404028352916020019161057b565b820191906000526020600020905b81548152906001019060200180831161055e57829003601f168201915b505050506003830154600484015460058501546006909501549394919390925060ff8082169161010090041688565b6060600880548060200260200160405190810160405280929190818152602001828054801561060257602002820191906000526020600020905b81546001600160a01b031681526001909101906020018083116105e4575b5050505050905090565b61066160405180610100016040528060006001600160a01b0316815260200160608152602001606081526020016000815260200160008152602001600081526020016000151581526020016000151581525090565b604080516101008101909152600080546001600160a01b031682526001805460208401919061068f90610bb7565b80601f01602080910402602001604051908101604052809291908181526020018280546106bb90610bb7565b80156107085780601f106106dd57610100808354040283529160200191610708565b820191906000526020600020905b8154815290600101906020018083116106eb57829003601f168201915b5050505050815260200160028201805461072190610bb7565b80601f016020809104026020016040519081016040528092919081815260200182805461074d90610bb7565b801561079a5780601f1061076f5761010080835404028352916020019161079a565b820191906000526020600020905b81548152906001019060200180831161077d57829003601f168201915b505050918352505060038201546020820152600482015460408201526005820154606082015260069091015460ff8082161515608084015261010090910416151560a090910152919050565b60065460ff1680156107fa57506005544211155b61083c5760405162461bcd60e51b815260206004820152601360248201527243616d706169676e206e6f742061637469766560681b60448201526064016101ef565b600034116108985760405162461bcd60e51b815260206004820152602360248201527f436f6e747269627574696f6e206d75737420626520677265617465722074686160448201526206e20360ec1b60648201526084016101ef565b3360009081526007602052604081205490036108f157600880546001810182556000919091527ff3f7a9fe364faab93b216da50a3214154f22a0a2b415b23a84c8169e8b636ee30180546001600160a01b031916331790555b3360009081526007602052604081208054349290610910908490610bf1565b90915550506004805434919060009061092a908490610bf1565b9091555050604080513381523460208201527f6770260ea820d2f539364e7617e021543aaf6d192f2fd2a47c20db6bd99a4eb9910160405180910390a1600354600454108015906109835750600654610100900460ff16155b156109d5576006805461ff0019166101001790556004546040517ffbfd8ab7c24300fa9888cd721c8565a7da56759384781283684dcf7c7c4a846b916109cc9190815260200190565b60405180910390a15b565b6000602082840312156109e957600080fd5b5035919050565b600060208284031215610a0257600080fd5b81356001600160a01b0381168114610a1957600080fd5b9392505050565b6000815180845260005b81811015610a4657602081850181015186830182015201610a2a565b506000602082860101526020601f19601f83011685010191505092915050565b6001600160a01b038916815261010060208201819052600090610a8b8382018b610a20565b90508281036040840152610a9f818a610a20565b60608401989098525050608081019490945260a0840192909252151560c0830152151560e0909101529392505050565b6020808252825182820181905260009190848201906040850190845b81811015610b105783516001600160a01b031683529284019291840191600101610aeb565b50909695505050505050565b602080825282516001600160a01b0316828201528201516101006040830181905260009190610b4f610120850183610a20565b91506040850151601f19858403016060860152610b6c8382610a20565b92505060608501516080850152608085015160a085015260a085015160c085015260c0850151610ba060e086018215159052565b5060e0850151801515858301525090949350505050565b600181811c90821680610bcb57607f821691505b602082108103610beb57634e487b7160e01b600052602260045260246000fd5b50919050565b80820180821115610c1257634e487b7160e01b600052601160045260246000fd5b9291505056fea2646970667358221220cbdfe2648f9e075fea28b1932c068cccab366e27e4c7a056bc20715dae2ad6d464736f6c63430008130033a2646970667358221220b4359f6f37ebc90ba40bc7260f8dbcdc3ccc86387d9a38e13a7fc8d6b1e630d964736f6c63430008130033",
  "linkReferences": {},
  "deployedLinkReferences": {}
}