{
  "_format": "hh-sol-artifact-1",
  "contractName": "DIDRegistry",
  "sourceName": "contracts/DIDRegistry.sol",
  "abi": [
    {
      "anonymous": false,
      "inputs": [
        {
          "indexed": true,
          "internalType": "string",
          "name": "did",
          "type": "string"
        },
        {
          "indexed": false,
          "internalType": "uint256",
          "name": "version",
          "type": "uint256"
        },
        {
          "indexed": true,
          "internalType": "address",
          "name": "owner",
          "type": "address"
        },
        {
          "indexed": false,
          "internalType": "uint256",
          "name": "timestamp",
          "type": "uint256"
        }
      ],
      "name": "DIDDocumentUpdated",
      "type": "event"
    },
    {
      "anonymous": false,
      "inputs": [
        {
          "indexed": true,
          "internalType": "string",
          "name": "did",
          "type": "string"
        },
        {
          "indexed": true,
          "internalType": "address",
          "name": "previousOwner",
          "type": "address"
        },
        {
          "indexed": true,
          "internalType": "address",
          "name": "newOwner",
          "type": "address"
        }
      ],
      "name": "DIDOwnershipTransferred",
      "type": "event"
    },
    {
      "inputs": [
        {
          "internalType": "string",
          "name": "did",
          "type": "string"
        }
      ],
      "name": "deactivateDID",
      "outputs": [],
      "stateMutability": "nonpayable",
      "type": "function"
    },
    {
      "inputs": [
        {
          "internalType": "string",
          "name": "did",
          "type": "string"
        }
      ],
      "name": "didExists",
      "outputs": [
        {
          "internalType": "bool",
          "name": "",
          "type": "bool"
        }
      ],
      "stateMutability": "view",
      "type": "function"
    },
    {
      "inputs": [
        {
          "internalType": "string",
          "name": "did",
          "type": "string"
        }
      ],
      "name": "getDIDDocument",
      "outputs": [
        {
          "internalType": "string",
          "name": "",
          "type": "string"
        }
      ],
      "stateMutability": "view",
      "type": "function"
    },
    {
      "inputs": [
        {
          "internalType": "string",
          "name": "did",
          "type": "string"
        }
      ],
      "name": "getDIDInfo",
      "outputs": [
        {
          "internalType": "string",
          "name": "document",
          "type": "string"
        },
        {
          "internalType": "address",
          "name": "owner",
          "type": "address"
        },
        {
          "internalType": "uint256",
          "name": "version",
          "type": "uint256"
        },
        {
          "internalType": "uint256",
          "name": "created",
          "type": "uint256"
        },
        {
          "internalType": "uint256",
          "name": "updated",
          "type": "uint256"
        }
      ],
      "stateMutability": "view",
      "type": "function"
    },
    {
      "inputs": [
        {
          "internalType": "string",
          "name": "did",
          "type": "string"
        }
      ],
      "name": "getDIDOwner",
      "outputs": [
        {
          "internalType": "address",
          "name": "",
          "type": "address"
        }
      ],
      "stateMutability": "view",
      "type": "function"
    },
    {
      "inputs": [
        {
          "internalType": "string",
          "name": "did",
          "type": "string"
        }
      ],
      "name": "getDIDVersion",
      "outputs": [
        {
          "internalType": "uint256",
          "name": "",
          "type": "uint256"
        }
      ],
      "stateMutability": "view",
      "type": "function"
    },
    {
      "inputs": [
        {
          "internalType": "address",
          "name": "owner",
          "type": "address"
        }
      ],
      "name": "getOwnerDIDs",
      "outputs": [
        {
          "internalType": "string[]",
          "name": "",
          "type": "string[]"
        }
      ],
      "stateMutability": "view",
      "type": "function"
    },
    {
      "inputs": [],
      "name": "getTotalDIDs",
      "outputs": [
        {
          "internalType": "uint256",
          "name": "",
          "type": "uint256"
        }
      ],
      "stateMutability": "view",
      "type": "function"
    },
    {
      "inputs": [
        {
          "internalType": "string",
          "name": "did",
          "type": "string"
        },
        {
          "internalType": "address",
          "name": "newOwner",
          "type": "address"
        }
      ],
      "name": "transferDIDOwnership",
      "outputs": [],
      "stateMutability": "nonpayable",
      "type": "function"
    },
    {
      "inputs": [
        {
          "internalType": "string",
          "name": "did",
          "type": "string"
        },
        {
          "internalType": "string",
          "name": "document",
          "type": "string"
        }
      ],
      "name": "updateDIDDocument",
      "outputs": [],
      "stateMutability": "nonpayable",
      "type": "function"
    }
  ],
  "bytecode": "0x608060405234801561001057600080fd5b506114a3806100206000396000f3fe608060405234801561001057600080fd5b506004361061009e5760003560e01c80635268923f116100665780635268923f146101185780635b11255914610138578063720127fa14610163578063784afc4e1461018757806379ab3c57146101a757600080fd5b806320dd57a9146100a357806337affd80146100cb5780633afb0e8b146100dd5780633b253b23146100f257806345b750d014610105575b600080fd5b6100b66100b1366004610eba565b6101ba565b60405190151581526020015b60405180910390f35b6002545b6040519081526020016100c2565b6100f06100eb366004610ef7565b6101e7565b005b6100f0610100366004610eba565b6104ff565b6100f0610113366004610f77565b61063b565b61012b610126366004610fc5565b61087e565b6040516100c29190611037565b61014b610146366004610eba565b61096d565b6040516001600160a01b0390911681526020016100c2565b610176610171366004610eba565b6109e2565b6040516100c2959493929190611099565b61019a610195366004610eba565b610b63565b6040516100c291906110d9565b6100cf6101b5366004610eba565b610c56565b600080826040516101cb91906110ec565b9081526040519081900360200190206005015460ff1692915050565b60008251116102335760405162461bcd60e51b81526020600482015260136024820152724449442063616e6e6f7420626520656d70747960681b60448201526064015b60405180910390fd5b60008151116102845760405162461bcd60e51b815260206004820152601860248201527f446f63756d656e742063616e6e6f7420626520656d7074790000000000000000604482015260640161022a565b60008260405161029491906110ec565b9081526040519081900360200190206005015460ff166103aa576040805160c08101825282815233602082015260018183018190524260608301819052608083015260a082015290516000906102eb9085906110ec565b908152604051908190036020019020815181906103089082611191565b50602082810151600183810180546001600160a01b0319166001600160a01b03909316929092179091556040808501516002850155606085015160038501556080850151600485015560a0909401516005909301805460ff1916931515939093179092553360009081528282529283208054928301815583529091200161038f8382611191565b50600280549060006103a083611267565b9190505550610483565b336001600160a01b03166000836040516103c491906110ec565b908152604051908190036020019020600101546001600160a01b0316146103fd5760405162461bcd60e51b815260040161022a90611280565b8060008360405161040e91906110ec565b908152604051908190036020019020906104289082611191565b5060008260405161043991906110ec565b908152604051908190036020019020600201805490600061045983611267565b91905055504260008360405161046f91906110ec565b908152604051908190036020019020600401555b60405133906104939084906110ec565b60405180910390207f814f56c22687443ea6287491a1bc164f15c22c4b9b214af948466b68df2df9a06000856040516104cc91906110ec565b908152604051908190036020018120600201546104f3914290918252602082015260400190565b60405180910390a35050565b8060008160405161051091906110ec565b9081526040519081900360200190206005015460ff166105425760405162461bcd60e51b815260040161022a906112ab565b336001600160a01b031660008260405161055c91906110ec565b908152604051908190036020019020600101546001600160a01b0316146105955760405162461bcd60e51b815260040161022a90611280565b604051806020016040528060008152506000836040516105b591906110ec565b908152604051908190036020019020906105cf9082611191565b50426000836040516105e191906110ec565b90815260200160405180910390206004018190555060008260405161060691906110ec565b908152604051908190036020019020600201805490600061062683611267565b909155505060405133906104939084906110ec565b8160008160405161064c91906110ec565b9081526040519081900360200190206005015460ff1661067e5760405162461bcd60e51b815260040161022a906112ab565b336001600160a01b031660008260405161069891906110ec565b908152604051908190036020019020600101546001600160a01b0316146106d15760405162461bcd60e51b815260040161022a90611280565b816001600160a01b03811661071a5760405162461bcd60e51b815260206004820152600f60248201526e496e76616c6964206164647265737360881b604482015260640161022a565b6000808560405161072b91906110ec565b908152604051908190036020018120600101546001600160a01b0316915084906000906107599088906110ec565b908152602001604051809103902060010160006101000a8154816001600160a01b0302191690836001600160a01b031602179055504260008660405161079f91906110ec565b9081526020016040518091039020600401819055506000856040516107c491906110ec565b90815260405190819003602001902060020180549060006107e483611267565b91905055506107f38186610cc2565b6001600160a01b03841660009081526001602081815260408320805492830181558352909120016108248682611191565b50836001600160a01b0316816001600160a01b03168660405161084791906110ec565b604051908190038120907f6685cec1864dc6f626b6a230181bb6a4f5eca5abe1a89ca18115f90c1737969c90600090a45050505050565b6001600160a01b0381166000908152600160209081526040808320805482518185028101850190935280835260609492939192909184015b828210156109625783829060005260206000200180546108d590611108565b80601f016020809104026020016040519081016040528092919081815260200182805461090190611108565b801561094e5780601f106109235761010080835404028352916020019161094e565b820191906000526020600020905b81548152906001019060200180831161093157829003601f168201915b5050505050815260200190600101906108b6565b505050509050919050565b6000808260405161097e91906110ec565b9081526040519081900360200190206005015460ff166109b05760405162461bcd60e51b815260040161022a906112ab565b6000826040516109c091906110ec565b908152604051908190036020019020600101546001600160a01b031692915050565b60606000806000806000866040516109fa91906110ec565b9081526040519081900360200190206005015460ff16610a2c5760405162461bcd60e51b815260040161022a906112ab565b60008087604051610a3d91906110ec565b90815260200160405180910390206040518060c0016040529081600082018054610a6690611108565b80601f0160208091040260200160405190810160405280929190818152602001828054610a9290611108565b8015610adf5780601f10610ab457610100808354040283529160200191610adf565b820191906000526020600020905b815481529060010190602001808311610ac257829003601f168201915b505050918352505060018201546001600160a01b031660208083019190915260028301546040808401919091526003840154606080850191909152600485015460808086019190915260059095015460ff16151560a09094019390935284519185015190850151928501519490930151909b929a5090985091965090945092505050565b6060600082604051610b7591906110ec565b9081526040519081900360200190206005015460ff16610ba75760405162461bcd60e51b815260040161022a906112ab565b600082604051610bb791906110ec565b9081526040519081900360200190208054610bd190611108565b80601f0160208091040260200160405190810160405280929190818152602001828054610bfd90611108565b8015610c4a5780601f10610c1f57610100808354040283529160200191610c4a565b820191906000526020600020905b815481529060010190602001808311610c2d57829003601f168201915b50505050509050919050565b60008082604051610c6791906110ec565b9081526040519081900360200190206005015460ff16610c995760405162461bcd60e51b815260040161022a906112ab565b600082604051610ca991906110ec565b9081526020016040518091039020600201549050919050565b6001600160a01b0382166000908152600160205260408120905b8154811015610dbb578280519060200120828281548110610cff57610cff6112d7565b90600052602060002001604051610d1691906112ed565b604051809103902003610da95781548290610d3390600190611363565b81548110610d4357610d436112d7565b90600052602060002001828281548110610d5f57610d5f6112d7565b906000526020600020019081610d75919061137c565b5081805480610d8657610d86611457565b600190038181906000526020600020016000610da29190610dc1565b9055610dbb565b80610db381611267565b915050610cdc565b50505050565b508054610dcd90611108565b6000825580601f10610ddd575050565b601f016020900490600052602060002090810190610dfb9190610dfe565b50565b5b80821115610e135760008155600101610dff565b5090565b634e487b7160e01b600052604160045260246000fd5b600082601f830112610e3e57600080fd5b813567ffffffffffffffff80821115610e5957610e59610e17565b604051601f8301601f19908116603f01168101908282118183101715610e8157610e81610e17565b81604052838152866020858801011115610e9a57600080fd5b836020870160208301376000602085830101528094505050505092915050565b600060208284031215610ecc57600080fd5b813567ffffffffffffffff811115610ee357600080fd5b610eef84828501610e2d565b949350505050565b60008060408385031215610f0a57600080fd5b823567ffffffffffffffff80821115610f2257600080fd5b610f2e86838701610e2d565b93506020850135915080821115610f4457600080fd5b50610f5185828601610e2d565b9150509250929050565b80356001600160a01b0381168114610f7257600080fd5b919050565b60008060408385031215610f8a57600080fd5b823567ffffffffffffffff811115610fa157600080fd5b610fad85828601610e2d565b925050610fbc60208401610f5b565b90509250929050565b600060208284031215610fd757600080fd5b610fe082610f5b565b9392505050565b60005b83811015611002578181015183820152602001610fea565b50506000910152565b60008151808452611023816020860160208601610fe7565b601f01601f19169290920160200192915050565b6000602080830181845280855180835260408601915060408160051b870101925083870160005b8281101561108c57603f1988860301845261107a85835161100b565b9450928501929085019060010161105e565b5092979650505050505050565b60a0815260006110ac60a083018861100b565b6001600160a01b039690961660208301525060408101939093526060830191909152608090910152919050565b602081526000610fe0602083018461100b565b600082516110fe818460208701610fe7565b9190910192915050565b600181811c9082168061111c57607f821691505b60208210810361113c57634e487b7160e01b600052602260045260246000fd5b50919050565b601f82111561118c57600081815260208120601f850160051c810160208610156111695750805b601f850160051c820191505b8181101561118857828155600101611175565b5050505b505050565b815167ffffffffffffffff8111156111ab576111ab610e17565b6111bf816111b98454611108565b84611142565b602080601f8311600181146111f457600084156111dc5750858301515b600019600386901b1c1916600185901b178555611188565b600085815260208120601f198616915b8281101561122357888601518255948401946001909101908401611204565b50858210156112415787850151600019600388901b60f8161c191681555b5050505050600190811b01905550565b634e487b7160e01b600052601160045260246000fd5b60006001820161127957611279611251565b5060010190565b6020808252601190820152702737ba103a3432902224a21037bbb732b960791b604082015260600190565b60208082526012908201527111125108191bd95cc81b9bdd08195e1a5cdd60721b604082015260600190565b634e487b7160e01b600052603260045260246000fd5b60008083546112fb81611108565b60018281168015611313576001811461132857611357565b60ff1984168752821515830287019450611357565b8760005260208060002060005b8581101561134e5781548a820152908401908201611335565b50505082870194505b50929695505050505050565b8181038181111561137657611376611251565b92915050565b818103611387575050565b6113918254611108565b67ffffffffffffffff8111156113a9576113a9610e17565b6113b7816111b98454611108565b6000601f8211600181146113eb57600083156113d35750848201545b600019600385901b1c1916600184901b178455611450565b600085815260209020601f19841690600086815260209020845b838110156114255782860154825560019586019590910190602001611405565b50858310156114435781850154600019600388901b60f8161c191681555b50505060018360011b0184555b5050505050565b634e487b7160e01b600052603160045260246000fdfea264697066735822122089b0d3d6a31c3d007f04107f0616b2d43b0c520d1a817be3b97ba6a2b11c9ad564736f6c63430008130033",
  "linkReferences": {},
  "deployedLinkReferences": {}
}