{
  "_format": "hh-sol-artifact-1",
  "contractName": "DIDRegistry",
  "sourceName": "contracts/DIDRegistry.sol",
  "abi": [
    {
      "anonymous": false,
      "inputs": [
        {
          "indexed": true,
          "internalType": "string",
          "name": "did",
          "type": "string"
        },
        {
          "indexed": false,
          "internalType": "uint256",
          "name": "version",
          "type": "uint256"
        },
        {
          "indexed": true,
          "internalType": "address",
          "name": "owner",
          "type": "address"
        },
        {
          "indexed": false,
          "internalType": "uint256",
          "name": "timestamp",
          "type": "uint256"
        }
      ],
      "name": "DIDDocumentUpdated",
      "type": "event"
    },
    {
      "anonymous": false,
      "inputs": [
        {
          "indexed": true,
          "internalType": "string",
          "name": "did",
          "type": "string"
        },
        {
          "indexed": true,
          "internalType": "address",
          "name": "previousOwner",
          "type": "address"
        },
        {
          "indexed": true,
          "internalType": "address",
          "name": "newOwner",
          "type": "address"
        }
      ],
      "name": "DIDOwnershipTransferred",
      "type": "event"
    },
    {
      "inputs": [
        {
          "internalType": "string",
          "name": "did",
          "type": "string"
        }
      ],
      "name": "deactivateDID",
      "outputs": [],
      "stateMutability": "nonpayable",
      "type": "function"
    },
    {
      "inputs": [
        {
          "internalType": "string",
          "name": "did",
          "type": "string"
        }
      ],
      "name": "didExists",
      "outputs": [
        {
          "internalType": "bool",
          "name": "",
          "type": "bool"
        }
      ],
      "stateMutability": "view",
      "type": "function"
    },
    {
      "inputs": [
        {
          "internalType": "string",
          "name": "did",
          "type": "string"
        }
      ],
      "name": "getDIDDocument",
      "outputs": [
        {
          "internalType": "string",
          "name": "",
          "type": "string"
        }
      ],
      "stateMutability": "view",
      "type": "function"
    },
    {
      "inputs": [
        {
          "internalType": "string",
          "name": "did",
          "type": "string"
        }
      ],
      "name": "getDIDInfo",
      "outputs": [
        {
          "internalType": "string",
          "name": "document",
          "type": "string"
        },
        {
          "internalType": "address",
          "name": "owner",
          "type": "address"
        },
        {
          "internalType": "uint256",
          "name": "version",
          "type": "uint256"
        },
        {
          "internalType": "uint256",
          "name": "created",
          "type": "uint256"
        },
        {
          "internalType": "uint256",
          "name": "updated",
          "type": "uint256"
        }
      ],
      "stateMutability": "view",
      "type": "function"
    },
    {
      "inputs": [
        {
          "internalType": "string",
          "name": "did",
          "type": "string"
        }
      ],
      "name": "getDIDOwner",
      "outputs": [
        {
          "internalType": "address",
          "name": "",
          "type": "address"
        }
      ],
      "stateMutability": "view",
      "type": "function"
    },
    {
      "inputs": [
        {
          "internalType": "string",
          "name": "did",
          "type": "string"
        }
      ],
      "name": "getDIDVersion",
      "outputs": [
        {
          "internalType": "uint256",
          "name": "",
          "type": "uint256"
        }
      ],
      "stateMutability": "view",
      "type": "function"
    },
    {
      "inputs": [
        {
          "internalType": "address",
          "name": "owner",
          "type": "address"
        }
      ],
      "name": "getOwnerDIDs",
      "outputs": [
        {
          "internalType": "string[]",
          "name": "",
          "type": "string[]"
        }
      ],
      "stateMutability": "view",
      "type": "function"
    },
    {
      "inputs": [],
      "name": "getTotalDIDs",
      "outputs": [
        {
          "internalType": "uint256",
          "name": "",
          "type": "uint256"
        }
      ],
      "stateMutability": "view",
      "type": "function"
    },
    {
      "inputs": [
        {
          "internalType": "string",
          "name": "did",
          "type": "string"
        },
        {
          "internalType": "address",
          "name": "newOwner",
          "type": "address"
        }
      ],
      "name": "transferDIDOwnership",
      "outputs": [],
      "stateMutability": "nonpayable",
      "type": "function"
    },
    {
      "inputs": [
        {
          "internalType": "string",
          "name": "did",
          "type": "string"
        },
        {
          "internalType": "string",
          "name": "document",
          "type": "string"
        }
      ],
      "name": "updateDIDDocument",
      "outputs": [],
      "stateMutability": "nonpayable",
      "type": "function"
    }
  ],
  "bytecode": "0x608060405234801561001057600080fd5b5061148d806100206000396000f3fe608060405234801561001057600080fd5b506004361061009e5760003560e01c80635268923f116100665780635268923f146101175780635b11255914610137578063720127fa14610162578063784afc4e1461018657806379ab3c57146101a657600080fd5b806320dd57a9146100a357806337affd80146100cb5780633afb0e8b146100dc5780633b253b23146100f157806345b750d014610104575b600080fd5b6100b66100b1366004610ea4565b6101b9565b60405190151581526020015b60405180910390f35b60005b6040519081526020016100c2565b6100ef6100ea366004610ee1565b6101e6565b005b6100ef6100ff366004610ea4565b6104e9565b6100ef610112366004610f61565b610625565b61012a610125366004610faf565b610868565b6040516100c29190611021565b61014a610145366004610ea4565b610957565b6040516001600160a01b0390911681526020016100c2565b610175610170366004610ea4565b6109cc565b6040516100c2959493929190611083565b610199610194366004610ea4565b610b4d565b6040516100c291906110c3565b6100ce6101b4366004610ea4565b610c40565b600080826040516101ca91906110d6565b9081526040519081900360200190206005015460ff1692915050565b60008251116102325760405162461bcd60e51b81526020600482015260136024820152724449442063616e6e6f7420626520656d70747960681b60448201526064015b60405180910390fd5b60008151116102835760405162461bcd60e51b815260206004820152601860248201527f446f63756d656e742063616e6e6f7420626520656d70747900000000000000006044820152606401610229565b60008260405161029391906110d6565b9081526040519081900360200190206005015460ff16610394576040805160c08101825282815233602082015260018183018190524260608301819052608083015260a082015290516000906102ea9085906110d6565b90815260405190819003602001902081518190610307908261117b565b50602082810151600183810180546001600160a01b0319166001600160a01b03909316929092179091556040808501516002850155606085015160038501556080850151600485015560a0909401516005909301805460ff1916931515939093179092553360009081528282529283208054928301815583529091200161038e838261117b565b5061046d565b336001600160a01b03166000836040516103ae91906110d6565b908152604051908190036020019020600101546001600160a01b0316146103e75760405162461bcd60e51b81526004016102299061123b565b806000836040516103f891906110d6565b90815260405190819003602001902090610412908261117b565b5060008260405161042391906110d6565b90815260405190819003602001902060020180549060006104438361127c565b91905055504260008360405161045991906110d6565b908152604051908190036020019020600401555b604051339061047d9084906110d6565b60405180910390207f814f56c22687443ea6287491a1bc164f15c22c4b9b214af948466b68df2df9a06000856040516104b691906110d6565b908152604051908190036020018120600201546104dd914290918252602082015260400190565b60405180910390a35050565b806000816040516104fa91906110d6565b9081526040519081900360200190206005015460ff1661052c5760405162461bcd60e51b815260040161022990611295565b336001600160a01b031660008260405161054691906110d6565b908152604051908190036020019020600101546001600160a01b03161461057f5760405162461bcd60e51b81526004016102299061123b565b6040518060200160405280600081525060008360405161059f91906110d6565b908152604051908190036020019020906105b9908261117b565b50426000836040516105cb91906110d6565b9081526020016040518091039020600401819055506000826040516105f091906110d6565b90815260405190819003602001902060020180549060006106108361127c565b9091555050604051339061047d9084906110d6565b8160008160405161063691906110d6565b9081526040519081900360200190206005015460ff166106685760405162461bcd60e51b815260040161022990611295565b336001600160a01b031660008260405161068291906110d6565b908152604051908190036020019020600101546001600160a01b0316146106bb5760405162461bcd60e51b81526004016102299061123b565b816001600160a01b0381166107045760405162461bcd60e51b815260206004820152600f60248201526e496e76616c6964206164647265737360881b6044820152606401610229565b6000808560405161071591906110d6565b908152604051908190036020018120600101546001600160a01b0316915084906000906107439088906110d6565b908152602001604051809103902060010160006101000a8154816001600160a01b0302191690836001600160a01b031602179055504260008660405161078991906110d6565b9081526020016040518091039020600401819055506000856040516107ae91906110d6565b90815260405190819003602001902060020180549060006107ce8361127c565b91905055506107dd8186610cac565b6001600160a01b038416600090815260016020818152604083208054928301815583529091200161080e868261117b565b50836001600160a01b0316816001600160a01b03168660405161083191906110d6565b604051908190038120907f6685cec1864dc6f626b6a230181bb6a4f5eca5abe1a89ca18115f90c1737969c90600090a45050505050565b6001600160a01b0381166000908152600160209081526040808320805482518185028101850190935280835260609492939192909184015b8282101561094c5783829060005260206000200180546108bf906110f2565b80601f01602080910402602001604051908101604052809291908181526020018280546108eb906110f2565b80156109385780601f1061090d57610100808354040283529160200191610938565b820191906000526020600020905b81548152906001019060200180831161091b57829003601f168201915b5050505050815260200190600101906108a0565b505050509050919050565b6000808260405161096891906110d6565b9081526040519081900360200190206005015460ff1661099a5760405162461bcd60e51b815260040161022990611295565b6000826040516109aa91906110d6565b908152604051908190036020019020600101546001600160a01b031692915050565b60606000806000806000866040516109e491906110d6565b9081526040519081900360200190206005015460ff16610a165760405162461bcd60e51b815260040161022990611295565b60008087604051610a2791906110d6565b90815260200160405180910390206040518060c0016040529081600082018054610a50906110f2565b80601f0160208091040260200160405190810160405280929190818152602001828054610a7c906110f2565b8015610ac95780601f10610a9e57610100808354040283529160200191610ac9565b820191906000526020600020905b815481529060010190602001808311610aac57829003601f168201915b505050918352505060018201546001600160a01b031660208083019190915260028301546040808401919091526003840154606080850191909152600485015460808086019190915260059095015460ff16151560a09094019390935284519185015190850151928501519490930151909b929a5090985091965090945092505050565b6060600082604051610b5f91906110d6565b9081526040519081900360200190206005015460ff16610b915760405162461bcd60e51b815260040161022990611295565b600082604051610ba191906110d6565b9081526040519081900360200190208054610bbb906110f2565b80601f0160208091040260200160405190810160405280929190818152602001828054610be7906110f2565b8015610c345780601f10610c0957610100808354040283529160200191610c34565b820191906000526020600020905b815481529060010190602001808311610c1757829003601f168201915b50505050509050919050565b60008082604051610c5191906110d6565b9081526040519081900360200190206005015460ff16610c835760405162461bcd60e51b815260040161022990611295565b600082604051610c9391906110d6565b9081526020016040518091039020600201549050919050565b6001600160a01b0382166000908152600160205260408120905b8154811015610da5578280519060200120828281548110610ce957610ce96112c1565b90600052602060002001604051610d0091906112d7565b604051809103902003610d935781548290610d1d9060019061134d565b81548110610d2d57610d2d6112c1565b90600052602060002001828281548110610d4957610d496112c1565b906000526020600020019081610d5f9190611366565b5081805480610d7057610d70611441565b600190038181906000526020600020016000610d8c9190610dab565b9055610da5565b80610d9d8161127c565b915050610cc6565b50505050565b508054610db7906110f2565b6000825580601f10610dc7575050565b601f016020900490600052602060002090810190610de59190610de8565b50565b5b80821115610dfd5760008155600101610de9565b5090565b634e487b7160e01b600052604160045260246000fd5b600082601f830112610e2857600080fd5b813567ffffffffffffffff80821115610e4357610e43610e01565b604051601f8301601f19908116603f01168101908282118183101715610e6b57610e6b610e01565b81604052838152866020858801011115610e8457600080fd5b836020870160208301376000602085830101528094505050505092915050565b600060208284031215610eb657600080fd5b813567ffffffffffffffff811115610ecd57600080fd5b610ed984828501610e17565b949350505050565b60008060408385031215610ef457600080fd5b823567ffffffffffffffff80821115610f0c57600080fd5b610f1886838701610e17565b93506020850135915080821115610f2e57600080fd5b50610f3b85828601610e17565b9150509250929050565b80356001600160a01b0381168114610f5c57600080fd5b919050565b60008060408385031215610f7457600080fd5b823567ffffffffffffffff811115610f8b57600080fd5b610f9785828601610e17565b925050610fa660208401610f45565b90509250929050565b600060208284031215610fc157600080fd5b610fca82610f45565b9392505050565b60005b83811015610fec578181015183820152602001610fd4565b50506000910152565b6000815180845261100d816020860160208601610fd1565b601f01601f19169290920160200192915050565b6000602080830181845280855180835260408601915060408160051b870101925083870160005b8281101561107657603f19888603018452611064858351610ff5565b94509285019290850190600101611048565b5092979650505050505050565b60a08152600061109660a0830188610ff5565b6001600160a01b039690961660208301525060408101939093526060830191909152608090910152919050565b602081526000610fca6020830184610ff5565b600082516110e8818460208701610fd1565b9190910192915050565b600181811c9082168061110657607f821691505b60208210810361112657634e487b7160e01b600052602260045260246000fd5b50919050565b601f82111561117657600081815260208120601f850160051c810160208610156111535750805b601f850160051c820191505b818110156111725782815560010161115f565b5050505b505050565b815167ffffffffffffffff81111561119557611195610e01565b6111a9816111a384546110f2565b8461112c565b602080601f8311600181146111de57600084156111c65750858301515b600019600386901b1c1916600185901b178555611172565b600085815260208120601f198616915b8281101561120d578886015182559484019460019091019084016111ee565b508582101561122b5787850151600019600388901b60f8161c191681555b5050505050600190811b01905550565b6020808252601190820152702737ba103a3432902224a21037bbb732b960791b604082015260600190565b634e487b7160e01b600052601160045260246000fd5b60006001820161128e5761128e611266565b5060010190565b60208082526012908201527111125108191bd95cc81b9bdd08195e1a5cdd60721b604082015260600190565b634e487b7160e01b600052603260045260246000fd5b60008083546112e5816110f2565b600182811680156112fd576001811461131257611341565b60ff1984168752821515830287019450611341565b8760005260208060002060005b858110156113385781548a82015290840190820161131f565b50505082870194505b50929695505050505050565b8181038181111561136057611360611266565b92915050565b818103611371575050565b61137b82546110f2565b67ffffffffffffffff81111561139357611393610e01565b6113a1816111a384546110f2565b6000601f8211600181146113d557600083156113bd5750848201545b600019600385901b1c1916600184901b17845561143a565b600085815260209020601f19841690600086815260209020845b8381101561140f57828601548255600195860195909101906020016113ef565b508583101561142d5781850154600019600388901b60f8161c191681555b50505060018360011b0184555b5050505050565b634e487b7160e01b600052603160045260246000fdfea2646970667358221220c300c078106faa1139ce5ec07de14c34ebb9c50c3bb020cda304dc4965ca853764736f6c63430008130033",
  "linkReferences": {},
  "deployedLinkReferences": {}
}